{
  "contractName": "CarbonCredit",
  "abi": [
    {
      "inputs": [],
      "stateMutability": "nonpayable",
      "type": "constructor"
    },
    {
      "anonymous": false,
      "inputs": [
        {
          "indexed": true,
          "internalType": "address",
          "name": "to",
          "type": "address"
        },
        {
          "indexed": false,
          "internalType": "uint256",
          "name": "amount",
          "type": "uint256"
        }
      ],
      "name": "CreditsIssued",
      "type": "event"
    },
    {
      "anonymous": false,
      "inputs": [
        {
          "indexed": true,
          "internalType": "address",
          "name": "from",
          "type": "address"
        },
        {
          "indexed": true,
          "internalType": "address",
          "name": "to",
          "type": "address"
        },
        {
          "indexed": false,
          "internalType": "uint256",
          "name": "amount",
          "type": "uint256"
        }
      ],
      "name": "CreditsTransferred",
      "type": "event"
    },
    {
      "inputs": [],
      "name": "admin",
      "outputs": [
        {
          "internalType": "address",
          "name": "",
          "type": "address"
        }
      ],
      "stateMutability": "view",
      "type": "function",
      "constant": true
    },
    {
      "inputs": [
        {
          "internalType": "address",
          "name": "",
          "type": "address"
        }
      ],
      "name": "credits",
      "outputs": [
        {
          "internalType": "uint256",
          "name": "",
          "type": "uint256"
        }
      ],
      "stateMutability": "view",
      "type": "function",
      "constant": true
    },
    {
      "inputs": [
        {
          "internalType": "address",
          "name": "to",
          "type": "address"
        },
        {
          "internalType": "uint256",
          "name": "amount",
          "type": "uint256"
        }
      ],
      "name": "issueCredits",
      "outputs": [],
      "stateMutability": "nonpayable",
      "type": "function"
    },
    {
      "inputs": [
        {
          "internalType": "address",
          "name": "to",
          "type": "address"
        },
        {
          "internalType": "uint256",
          "name": "amount",
          "type": "uint256"
        }
      ],
      "name": "transferCredits",
      "outputs": [],
      "stateMutability": "nonpayable",
      "type": "function"
    },
    {
      "inputs": [
        {
          "internalType": "address",
          "name": "account",
          "type": "address"
        }
      ],
      "name": "getCredits",
      "outputs": [
        {
          "internalType": "uint256",
          "name": "",
          "type": "uint256"
        }
      ],
      "stateMutability": "view",
      "type": "function",
      "constant": true
    }
  ],
  "bytecode": "0x608060405234801561000f575f80fd5b50335f806101000a81548173ffffffffffffffffffffffffffffffffffffffff021916908373ffffffffffffffffffffffffffffffffffffffff1602179055506107418061005c5f395ff3fe608060405234801561000f575f80fd5b5060043610610055575f3560e01c806331b00f7a146100595780633b66e9f614610075578063f851a440146100a5578063fb97033e146100c3578063fe5ff468146100df575b5f80fd5b610073600480360381019061006e91906104df565b61010f565b005b61008f600480360381019061008a919061051d565b610241565b60405161009c9190610557565b60405180910390f35b6100ad610287565b6040516100ba919061057f565b60405180910390f35b6100dd60048036038101906100d891906104df565b6102aa565b005b6100f960048036038101906100f4919061051d565b610439565b6040516101069190610557565b60405180910390f35b5f8054906101000a900473ffffffffffffffffffffffffffffffffffffffff1673ffffffffffffffffffffffffffffffffffffffff163373ffffffffffffffffffffffffffffffffffffffff161461019c576040517f08c379a0000000000000000000000000000000000000000000000000000000008152600401610193906105f2565b60405180910390fd5b8060015f8473ffffffffffffffffffffffffffffffffffffffff1673ffffffffffffffffffffffffffffffffffffffff1681526020019081526020015f205f8282546101e8919061063d565b925050819055508173ffffffffffffffffffffffffffffffffffffffff167fba27001eed39081e9d6f521103bc201676a9b4eb7fe868e5e596da78b135126b826040516102359190610557565b60405180910390a25050565b5f60015f8373ffffffffffffffffffffffffffffffffffffffff1673ffffffffffffffffffffffffffffffffffffffff1681526020019081526020015f20549050919050565b5f8054906101000a900473ffffffffffffffffffffffffffffffffffffffff1681565b8060015f3373ffffffffffffffffffffffffffffffffffffffff1673ffffffffffffffffffffffffffffffffffffffff1681526020019081526020015f2054101561032a576040517f08c379a0000000000000000000000000000000000000000000000000000000008152600401610321906106ba565b60405180910390fd5b8060015f3373ffffffffffffffffffffffffffffffffffffffff1673ffffffffffffffffffffffffffffffffffffffff1681526020019081526020015f205f82825461037691906106d8565b925050819055508060015f8473ffffffffffffffffffffffffffffffffffffffff1673ffffffffffffffffffffffffffffffffffffffff1681526020019081526020015f205f8282546103c9919061063d565b925050819055508173ffffffffffffffffffffffffffffffffffffffff163373ffffffffffffffffffffffffffffffffffffffff167fed198cadddd93e734cbf04cb1c3226d9bafaeb504cedbd8ee36b830b0cb9e7a58360405161042d9190610557565b60405180910390a35050565b6001602052805f5260405f205f915090505481565b5f80fd5b5f73ffffffffffffffffffffffffffffffffffffffff82169050919050565b5f61047b82610452565b9050919050565b61048b81610471565b8114610495575f80fd5b50565b5f813590506104a681610482565b92915050565b5f819050919050565b6104be816104ac565b81146104c8575f80fd5b50565b5f813590506104d9816104b5565b92915050565b5f80604083850312156104f5576104f461044e565b5b5f61050285828601610498565b9250506020610513858286016104cb565b9150509250929050565b5f602082840312156105325761053161044e565b5b5f61053f84828501610498565b91505092915050565b610551816104ac565b82525050565b5f60208201905061056a5f830184610548565b92915050565b61057981610471565b82525050565b5f6020820190506105925f830184610570565b92915050565b5f82825260208201905092915050565b7f4f6e6c792061646d696e2063616e2069737375652063726564697473000000005f82015250565b5f6105dc601c83610598565b91506105e7826105a8565b602082019050919050565b5f6020820190508181035f830152610609816105d0565b9050919050565b7f4e487b71000000000000000000000000000000000000000000000000000000005f52601160045260245ffd5b5f610647826104ac565b9150610652836104ac565b925082820190508082111561066a57610669610610565b5b92915050565b7f4e6f7420656e6f756768206372656469747300000000000000000000000000005f82015250565b5f6106a4601283610598565b91506106af82610670565b602082019050919050565b5f6020820190508181035f8301526106d181610698565b9050919050565b5f6106e2826104ac565b91506106ed836104ac565b925082820390508181111561070557610704610610565b5b9291505056fea2646970667358221220d15d0f76317d3ac254f2c07b0d1855e502eb65316a41c62b7bf08095f894619564736f6c63430008150033",
  "immutableReferences": {},
  "source": "// SPDX-License-Identifier: MIT\r\npragma solidity ^0.8.0;\r\n\r\ncontract CarbonCredit {\r\n    address public admin;\r\n    mapping(address => uint256) public credits;\r\n\r\n    event CreditsIssued(address indexed to, uint256 amount);\r\n    event CreditsTransferred(address indexed from, address indexed to, uint256 amount);\r\n\r\n    constructor() {\r\n        admin = msg.sender;\r\n    }\r\n\r\n    function issueCredits(address to, uint256 amount) external {\r\n        require(msg.sender == admin, \"Only admin can issue credits\");\r\n        credits[to] += amount;\r\n        emit CreditsIssued(to, amount);\r\n    }\r\n\r\n    function transferCredits(address to, uint256 amount) external {\r\n        require(credits[msg.sender] >= amount, \"Not enough credits\");\r\n        credits[msg.sender] -= amount;\r\n        credits[to] += amount;\r\n        emit CreditsTransferred(msg.sender, to, amount);\r\n    }\r\n\r\n    function getCredits(address account) external view returns (uint256) {\r\n        return credits[account];\r\n    }\r\n}\r\n",
  "sourcePath": "F:\\Blockchain\\smartContract\\contracts\\CarbonCredit.sol",
  "compiler": {
    "name": "solc",
    "version": "0.8.21+commit.d9974bed.Emscripten.clang"
  },
  "schemaVersion": "3.4.16",
  "updatedAt": "2024-10-02T12:53:41.557Z",
  "networkType": "ethereum",
  "devdoc": {
    "kind": "dev",
    "methods": {},
    "version": 1
  },
  "userdoc": {
    "kind": "user",
    "methods": {},
    "version": 1
  }
}